{
  "contractName": "Oracle",
  "abi": [
    {
      "inputs": [
        {
          "internalType": "address",
          "name": "_aggregatorAddress",
          "type": "address"
        }
      ],
      "stateMutability": "nonpayable",
      "type": "constructor"
    },
    {
      "inputs": [],
      "name": "fluxAggregatorAddress",
      "outputs": [
        {
          "internalType": "address",
          "name": "",
          "type": "address"
        }
      ],
      "stateMutability": "view",
      "type": "function"
    },
    {
      "inputs": [
        {
          "internalType": "uint80",
          "name": "_roundId",
          "type": "uint80"
        }
      ],
      "name": "getRoundData",
      "outputs": [
        {
          "internalType": "uint80",
          "name": "roundId",
          "type": "uint80"
        },
        {
          "internalType": "int256",
          "name": "answer",
          "type": "int256"
        },
        {
          "internalType": "uint256",
          "name": "startedAt",
          "type": "uint256"
        },
        {
          "internalType": "uint256",
          "name": "updatedAt",
          "type": "uint256"
        },
        {
          "internalType": "uint80",
          "name": "answeredInRound",
          "type": "uint80"
        }
      ],
      "stateMutability": "view",
      "type": "function"
    },
    {
      "inputs": [],
      "name": "getLatest",
      "outputs": [
        {
          "internalType": "uint80",
          "name": "roundId",
          "type": "uint80"
        },
        {
          "internalType": "int256",
          "name": "answer",
          "type": "int256"
        },
        {
          "internalType": "uint256",
          "name": "startedAt",
          "type": "uint256"
        },
        {
          "internalType": "uint256",
          "name": "updatedAt",
          "type": "uint256"
        },
        {
          "internalType": "uint80",
          "name": "answeredInRound",
          "type": "uint80"
        }
      ],
      "stateMutability": "view",
      "type": "function"
    },
    {
      "inputs": [
        {
          "internalType": "uint80",
          "name": "_roundId",
          "type": "uint80"
        }
      ],
      "name": "fetchRoundBehind",
      "outputs": [
        {
          "internalType": "uint256",
          "name": "",
          "type": "uint256"
        },
        {
          "internalType": "uint80",
          "name": "",
          "type": "uint80"
        }
      ],
      "stateMutability": "view",
      "type": "function"
    },
    {
      "inputs": [
        {
          "internalType": "uint256",
          "name": "timestamp",
          "type": "uint256"
        }
      ],
      "name": "fetchSpotAtTime",
      "outputs": [
        {
          "internalType": "uint256",
          "name": "price",
          "type": "uint256"
        }
      ],
      "stateMutability": "view",
      "type": "function"
    },
    {
      "inputs": [
        {
          "internalType": "uint256",
          "name": "timestamp",
          "type": "uint256"
        }
      ],
      "name": "fetchRoundAtTimestamp",
      "outputs": [
        {
          "internalType": "uint256",
          "name": "",
          "type": "uint256"
        }
      ],
      "stateMutability": "view",
      "type": "function"
    }
  ],
  "bytecode": "0x608060405234801561001057600080fd5b50604051610cdd380380610cdd8339818101604052602081101561003357600080fd5b8101908080519060200190929190505050806000806101000a81548173ffffffffffffffffffffffffffffffffffffffff021916908373ffffffffffffffffffffffffffffffffffffffff1602179055508073ffffffffffffffffffffffffffffffffffffffff1663245a7bfc6040518163ffffffff1660e01b815260040160206040518083038186803b1580156100ca57600080fd5b505afa1580156100de573d6000803e3d6000fd5b505050506040513d60208110156100f457600080fd5b8101908080519060200190929190505050600160006101000a81548173ffffffffffffffffffffffffffffffffffffffff021916908373ffffffffffffffffffffffffffffffffffffffff160217905550600160009054906101000a900473ffffffffffffffffffffffffffffffffffffffff16600260006101000a81548173ffffffffffffffffffffffffffffffffffffffff021916908373ffffffffffffffffffffffffffffffffffffffff16021790555050610b25806101b86000396000f3fe608060405234801561001057600080fd5b50600436106100625760003560e01c80634bdba10c146100675780639a6fc8f5146100b1578063ba102a251461014b578063c36af460146101b8578063da0ecab314610222578063e2fb1b0f14610264575b600080fd5b61006f6102a6565b604051808273ffffffffffffffffffffffffffffffffffffffff1673ffffffffffffffffffffffffffffffffffffffff16815260200191505060405180910390f35b6100e9600480360360208110156100c757600080fd5b81019080803569ffffffffffffffffffff1690602001909291905050506102cc565b604051808669ffffffffffffffffffff1669ffffffffffffffffffff1681526020018581526020018481526020018381526020018269ffffffffffffffffffff1669ffffffffffffffffffff1681526020019550505050505060405180910390f35b6101836004803603602081101561016157600080fd5b81019080803569ffffffffffffffffffff169060200190929190505050610455565b604051808381526020018269ffffffffffffffffffff1669ffffffffffffffffffff1681526020019250505060405180910390f35b6101c061060f565b604051808669ffffffffffffffffffff1669ffffffffffffffffffff1681526020018581526020018481526020018381526020018269ffffffffffffffffffff1669ffffffffffffffffffff1681526020019550505050505060405180910390f35b61024e6004803603602081101561023857600080fd5b81019080803590602001909291905050506106d9565b6040518082815260200191505060405180910390f35b6102906004803603602081101561027a57600080fd5b81019080803590602001909291905050506108a6565b6040518082815260200191505060405180910390f35b600160009054906101000a900473ffffffffffffffffffffffffffffffffffffffff1681565b6000806000806000600160009054906101000a900473ffffffffffffffffffffffffffffffffffffffff1673ffffffffffffffffffffffffffffffffffffffff16639a6fc8f5876040518263ffffffff1660e01b8152600401808269ffffffffffffffffffff1669ffffffffffffffffffff16815260200191505060a06040518083038186803b15801561035f57600080fd5b505afa158015610373573d6000803e3d6000fd5b505050506040513d60a081101561038957600080fd5b81019080805190602001909291908051906020019092919080519060200190929190805190602001909291908051906020019092919050505080955081965082975083985084995050505050506000821161044c576040517f08c379a000000000000000000000000000000000000000000000000000000000815260040180806020018281038252600d8152602001807f696e76616c696420726f756e640000000000000000000000000000000000000081525060200191505060405180910390fd5b91939590929450565b6000806000600260009054906101000a900473ffffffffffffffffffffffffffffffffffffffff1673ffffffffffffffffffffffffffffffffffffffff1663b633620c856040518263ffffffff1660e01b8152600401808269ffffffffffffffffffff16815260200191505060206040518083038186803b1580156104d957600080fd5b505afa1580156104ed573d6000803e3d6000fd5b505050506040513d602081101561050357600080fd5b810190808051906020019092919050505090505b600081148015610534575060008469ffffffffffffffffffff1614155b1561060357838060019003945050600260009054906101000a900473ffffffffffffffffffffffffffffffffffffffff1673ffffffffffffffffffffffffffffffffffffffff1663b633620c856040518263ffffffff1660e01b8152600401808269ffffffffffffffffffff16815260200191505060206040518083038186803b1580156105c157600080fd5b505afa1580156105d5573d6000803e3d6000fd5b505050506040513d60208110156105eb57600080fd5b81019080805190602001909291905050509050610517565b80849250925050915091565b60008060008060006106c8600160009054906101000a900473ffffffffffffffffffffffffffffffffffffffff1673ffffffffffffffffffffffffffffffffffffffff1663668a0f026040518163ffffffff1660e01b815260040160206040518083038186803b15801561068257600080fd5b505afa158015610696573d6000803e3d6000fd5b505050506040513d60208110156106ac57600080fd5b810190808051906020019092919050505063ffffffff166102cc565b945094509450945094509091929394565b600080600260009054906101000a900473ffffffffffffffffffffffffffffffffffffffff1673ffffffffffffffffffffffffffffffffffffffff1663668a0f026040518163ffffffff1660e01b815260040160206040518083038186803b15801561074457600080fd5b505afa158015610758573d6000803e3d6000fd5b505050506040513d602081101561076e57600080fd5b8101908080519060200190929190505050905060008061078d83610455565b915091508185106107b7576107ad8169ffffffffffffffffffff16610965565b93505050506108a1565b809250600080600060018669ffffffffffffffffffff16901c90505b6107dc81610455565b80955081965050508785111561080957839550600184840169ffffffffffffffffffff16901c9150610851565b8785101561082e57809250600181870169ffffffffffffffffffff16901c9150610850565b6108438469ffffffffffffffffffff16610965565b96505050505050506108a1565b5b8190508269ffffffffffffffffffff168269ffffffffffffffffffff1614156107d35761087d83610455565b9050809350506108988369ffffffffffffffffffff16610965565b96505050505050505b919050565b6000600260009054906101000a900473ffffffffffffffffffffffffffffffffffffffff1673ffffffffffffffffffffffffffffffffffffffff1663b5ab58dc6108ef846106d9565b6040518263ffffffff1660e01b81526004018082815260200191505060206040518083038186803b15801561092357600080fd5b505afa158015610937573d6000803e3d6000fd5b505050506040513d602081101561094d57600080fd5b81019080805190602001909291905050509050919050565b600080600260009054906101000a900473ffffffffffffffffffffffffffffffffffffffff1673ffffffffffffffffffffffffffffffffffffffff1663b633620c846040518263ffffffff1660e01b81526004018082815260200191505060206040518083038186803b1580156109db57600080fd5b505afa1580156109ef573d6000803e3d6000fd5b505050506040513d6020811015610a0557600080fd5b8101908080519060200190929190505050905082806001019350505b600260009054906101000a900473ffffffffffffffffffffffffffffffffffffffff1673ffffffffffffffffffffffffffffffffffffffff1663b633620c846040518263ffffffff1660e01b81526004018082815260200191505060206040518083038186803b158015610a9457600080fd5b505afa158015610aa8573d6000803e3d6000fd5b505050506040513d6020811015610abe57600080fd5b8101908080519060200190929190505050811415610ae3578280600101935050610a21565b6001830391505091905056fea2646970667358221220f01267b4188878b5191dd3ddc1bdbbeb5d893132497c19136a69627dde3f962564736f6c63430006060033",
  "immutableReferences": {},
  "source": "pragma solidity >=0.6.0 <0.7.0;\n\nimport \"@chainlink/contracts/src/v0.6/interfaces/AggregatorInterface.sol\";\nimport \"@chainlink/contracts/src/v0.6/interfaces/AggregatorV3Interface.sol\";\nimport \"@chainlink/contracts/src/v0.6/AggregatorFacade.sol\";\n\ncontract Oracle {\n\n    address aggregatorAddress;\n    address public fluxAggregatorAddress;\n    \n    AggregatorInterface ai2;\n\n    constructor (address _aggregatorAddress) public {\n        aggregatorAddress = _aggregatorAddress;\n        fluxAggregatorAddress = address(AggregatorFacade(_aggregatorAddress).aggregator());\n        ai2 = AggregatorInterface(fluxAggregatorAddress);\n    }\n\n    function getRoundData(uint80 _roundId) public view\n        returns (\n          uint80 roundId,\n          int256 answer,\n          uint256 startedAt,\n          uint256 updatedAt,\n          uint80 answeredInRound\n        )\n    {\n        (roundId, answer, startedAt, updatedAt, answeredInRound) = AggregatorV3Interface(fluxAggregatorAddress).getRoundData(_roundId);\n        require(updatedAt > 0, \"invalid round\");\n    }\n\n    function getLatest() public view\n        returns (\n          uint80 roundId,\n          int256 answer,\n          uint256 startedAt,\n          uint256 updatedAt,\n          uint80 answeredInRound\n        )\n    {\n        return getRoundData(uint32(AggregatorInterface(fluxAggregatorAddress).latestRound()));\n    }\n\n    function fetchRoundBehind(uint80 _roundId) public view returns (uint, uint80) {\n        uint timestamp = ai2.getTimestamp(_roundId);\n        while (timestamp == 0 && _roundId != 0) {\n            _roundId--;\n            timestamp = ai2.getTimestamp(_roundId);\n        }\n        return (timestamp, _roundId);\n    }\n\n    function fetchSpotAtTime(uint timestamp) public view returns (uint price) {\n        //we can safely assume that the price will never be negative\n        price = uint(ai2.getAnswer(fetchRoundAtTimestamp(timestamp)));\n    }\n\n    function fremostRoundWithSameTimestamp(uint _roundId) internal view returns (uint) {\n        uint timestamp = ai2.getTimestamp(_roundId);\n        _roundId++;\n        while (timestamp == ai2.getTimestamp(_roundId)) _roundId++;\n        return _roundId-1;\n    }\n\n    function fetchRoundAtTimestamp(uint timestamp) public view returns (uint) {\n        uint80 latest = uint80(ai2.latestRound());\n        (uint fetchedTime, uint80 fetchedRound) = fetchRoundBehind(latest);\n        if (timestamp >= fetchedTime) return fremostRoundWithSameTimestamp(fetchedRound);\n        latest = fetchedRound;\n        uint80 back; // = 0\n        uint80 next;\n        uint80 round = latest >> 1;\n        do {\n            (fetchedTime, fetchedRound) = fetchRoundBehind(round);\n            if (fetchedTime > timestamp) {\n                latest = fetchedRound;\n                next = (back+fetchedRound)>>1;\n            } else if (fetchedTime < timestamp) {\n                back = round;\n                next = (latest+round)>>1;\n            } else return fremostRoundWithSameTimestamp(fetchedRound);\n            round = next;\n        } while (next != back);\n        (,back) = fetchRoundBehind(back);\n        return fremostRoundWithSameTimestamp(back);\n    }\n    \n}",
  "sourcePath": "/home/max/Desktop/truffleworkspace/oracle-chainlink/contracts/Oracle.sol",
  "compiler": {
    "name": "solc",
    "version": "0.6.6+commit.6c089d02.Emscripten.clang"
  },
  "schemaVersion": "3.1.0",
  "updatedAt": "2020-11-22T08:08:25.798Z",
  "devdoc": {
    "methods": {}
  },
  "userdoc": {
    "methods": {}
  }
}