{
  "contractName": "orcHelper",
  "abi": [
    {
      "inputs": [
        {
          "internalType": "string",
          "name": "",
          "type": "string"
        }
      ],
      "name": "PairInfo",
      "outputs": [
        {
          "internalType": "address",
          "name": "aggregatorAddress",
          "type": "address"
        },
        {
          "internalType": "address",
          "name": "oracleAddress",
          "type": "address"
        }
      ],
      "stateMutability": "view",
      "type": "function",
      "constant": true
    },
    {
      "inputs": [
        {
          "internalType": "address",
          "name": "",
          "type": "address"
        }
      ],
      "name": "TickerSymbols",
      "outputs": [
        {
          "internalType": "string",
          "name": "",
          "type": "string"
        }
      ],
      "stateMutability": "view",
      "type": "function",
      "constant": true
    },
    {
      "inputs": [],
      "name": "owner",
      "outputs": [
        {
          "internalType": "address",
          "name": "",
          "type": "address"
        }
      ],
      "stateMutability": "view",
      "type": "function",
      "constant": true
    },
    {
      "inputs": [
        {
          "internalType": "address",
          "name": "newOwner",
          "type": "address"
        }
      ],
      "name": "transferOwnership",
      "outputs": [],
      "stateMutability": "nonpayable",
      "type": "function"
    },
    {
      "inputs": [
        {
          "internalType": "address",
          "name": "_strikeAssetAddress",
          "type": "address"
        },
        {
          "internalType": "address",
          "name": "_underlyingAssetAddress",
          "type": "address"
        }
      ],
      "name": "oracleAddresses",
      "outputs": [
        {
          "internalType": "address",
          "name": "",
          "type": "address"
        }
      ],
      "stateMutability": "nonpayable",
      "type": "function"
    },
    {
      "inputs": [
        {
          "internalType": "address",
          "name": "_strikeAssetAddress",
          "type": "address"
        },
        {
          "internalType": "address",
          "name": "_underlyingAssetAddress",
          "type": "address"
        }
      ],
      "name": "deploy",
      "outputs": [],
      "stateMutability": "nonpayable",
      "type": "function"
    },
    {
      "inputs": [
        {
          "internalType": "address[]",
          "name": "_assetAddresses",
          "type": "address[]"
        },
        {
          "internalType": "string[]",
          "name": "_tickerSymbols",
          "type": "string[]"
        }
      ],
      "name": "addTickers",
      "outputs": [],
      "stateMutability": "nonpayable",
      "type": "function"
    },
    {
      "inputs": [
        {
          "internalType": "string[]",
          "name": "_pairTicker",
          "type": "string[]"
        },
        {
          "internalType": "address[]",
          "name": "_aggregators",
          "type": "address[]"
        }
      ],
      "name": "addAggregators",
      "outputs": [],
      "stateMutability": "nonpayable",
      "type": "function"
    }
  ],
  "bytecode": "0x6080604052336000806101000a81548173ffffffffffffffffffffffffffffffffffffffff021916908373ffffffffffffffffffffffffffffffffffffffff160217905550612368806100536000396000f3fe60806040523480156200001157600080fd5b5060043610620000945760003560e01c80636aebe80011620000635780636aebe800146200015c5780638da5cb5b146200017c578063baeb8eda146200019e578063f2fde38b14620001be5762000094565b80632ca60a63146200009957806339b2946314620000cf57806343d52b211462000105578063545e7c61146200013c575b600080fd5b620000b76004803603810190620000b1919062000f0d565b620001de565b604051620000c691906200141c565b60405180910390f35b620000ed6004803603810190620000e7919062000f39565b62000292565b604051620000fc9190620013d2565b60405180910390f35b6200012360048036038101906200011d919062001060565b6200037f565b60405162000133929190620013ef565b60405180910390f35b6200015a600480360381019062000154919062000f39565b620003f9565b005b6200017a600480360381019062000174919062000fed565b62000753565b005b62000186620009a1565b604051620001959190620013d2565b60405180910390f35b620001bc6004803603810190620001b6919062000f7a565b620009c6565b005b620001dc6004803603810190620001d6919062000f0d565b62000b82565b005b60016020528060005260406000206000915090508054600181600116156101000203166002900480601f0160208091040260200160405190810160405280929190818152602001828054600181600116156101000203166002900480156200028a5780601f106200025e576101008083540402835291602001916200028a565b820191906000526020600020905b8154815290600101906020018083116200026c57829003601f168201915b505050505081565b60006002600160008573ffffffffffffffffffffffffffffffffffffffff1673ffffffffffffffffffffffffffffffffffffffff168152602001908152602001600020600160008573ffffffffffffffffffffffffffffffffffffffff1673ffffffffffffffffffffffffffffffffffffffff168152602001908152602001600020604051602001620003279291906200139d565b60405160208183030381529060405260405162000345919062001384565b908152602001604051809103902060010160009054906101000a900473ffffffffffffffffffffffffffffffffffffffff16905092915050565b6002818051602081018201805184825260208301602085012081835280955050505050506000915090508060000160009054906101000a900473ffffffffffffffffffffffffffffffffffffffff16908060010160009054906101000a900473ffffffffffffffffffffffffffffffffffffffff16905082565b8173ffffffffffffffffffffffffffffffffffffffff168173ffffffffffffffffffffffffffffffffffffffff1614156200046b576040517f08c379a00000000000000000000000000000000000000000000000000000000081526004016200046290620014a6565b60405180910390fd5b6200047562000c8d565b6002600160008573ffffffffffffffffffffffffffffffffffffffff1673ffffffffffffffffffffffffffffffffffffffff168152602001908152602001600020600160008573ffffffffffffffffffffffffffffffffffffffff1673ffffffffffffffffffffffffffffffffffffffff168152602001908152602001600020604051602001620005089291906200139d565b60405160208183030381529060405260405162000526919062001384565b90815260200160405180910390206040518060400160405290816000820160009054906101000a900473ffffffffffffffffffffffffffffffffffffffff1673ffffffffffffffffffffffffffffffffffffffff1673ffffffffffffffffffffffffffffffffffffffff1681526020016001820160009054906101000a900473ffffffffffffffffffffffffffffffffffffffff1673ffffffffffffffffffffffffffffffffffffffff1673ffffffffffffffffffffffffffffffffffffffff16815250509050600073ffffffffffffffffffffffffffffffffffffffff16816000015173ffffffffffffffffffffffffffffffffffffffff16141562000664576040517f08c379a00000000000000000000000000000000000000000000000000000000081526004016200065b9062001440565b60405180910390fd5b600073ffffffffffffffffffffffffffffffffffffffff16816020015173ffffffffffffffffffffffffffffffffffffffff1614620006da576040517f08c379a0000000000000000000000000000000000000000000000000000000008152600401620006d19062001484565b60405180910390fd5b8060000151604051620006ed9062000cd3565b620006f99190620013d2565b604051809103906000f08015801562000716573d6000803e3d6000fd5b50816020019073ffffffffffffffffffffffffffffffffffffffff16908173ffffffffffffffffffffffffffffffffffffffff1681525050505050565b6000809054906101000a900473ffffffffffffffffffffffffffffffffffffffff1673ffffffffffffffffffffffffffffffffffffffff163373ffffffffffffffffffffffffffffffffffffffff1614620007e5576040517f08c379a0000000000000000000000000000000000000000000000000000000008152600401620007dc9062001462565b60405180910390fd5b60008251905081518114620007f957600080fd5b60008090505b818110156200099b577f2f000000000000000000000000000000000000000000000000000000000000008482815181106200083657fe5b60200260200101516000815181106200084b57fe5b602001015160f81c60f81b7effffffffffffffffffffffffffffffffffffffffffffffffffffffffffffff191614156200088457600080fd5b7f2f00000000000000000000000000000000000000000000000000000000000000848281518110620008b257fe5b6020026020010151600186510381518110620008ca57fe5b602001015160f81c60f81b7effffffffffffffffffffffffffffffffffffffffffffffffffffffffffffff191614156200090357600080fd5b8281815181106200091057fe5b602002602001015160028583815181106200092757fe5b60200260200101516040516200093e919062001384565b908152602001604051809103902060000160006101000a81548173ffffffffffffffffffffffffffffffffffffffff021916908373ffffffffffffffffffffffffffffffffffffffff1602179055508080600101915050620007ff565b50505050565b6000809054906101000a900473ffffffffffffffffffffffffffffffffffffffff1681565b6000809054906101000a900473ffffffffffffffffffffffffffffffffffffffff1673ffffffffffffffffffffffffffffffffffffffff163373ffffffffffffffffffffffffffffffffffffffff161462000a58576040517f08c379a000000000000000000000000000000000000000000000000000000000815260040162000a4f9062001462565b60405180910390fd5b6000825190508151811462000a6c57600080fd5b60008090505b8181101562000b7c5760006001600086848151811062000a8e57fe5b602002602001015173ffffffffffffffffffffffffffffffffffffffff1673ffffffffffffffffffffffffffffffffffffffff1681526020019081526020016000208054600181600116156101000203166002900490501462000af057600080fd5b82818151811062000afd57fe5b60200260200101516001600086848151811062000b1657fe5b602002602001015173ffffffffffffffffffffffffffffffffffffffff1673ffffffffffffffffffffffffffffffffffffffff168152602001908152602001600020908051906020019062000b6d92919062000ce1565b50808060010191505062000a72565b50505050565b6000809054906101000a900473ffffffffffffffffffffffffffffffffffffffff1673ffffffffffffffffffffffffffffffffffffffff163373ffffffffffffffffffffffffffffffffffffffff161462000c14576040517f08c379a000000000000000000000000000000000000000000000000000000000815260040162000c0b9062001462565b60405180910390fd5b600073ffffffffffffffffffffffffffffffffffffffff168173ffffffffffffffffffffffffffffffffffffffff161462000c8a57806000806101000a81548173ffffffffffffffffffffffffffffffffffffffff021916908373ffffffffffffffffffffffffffffffffffffffff1602179055505b50565b6040518060400160405280600073ffffffffffffffffffffffffffffffffffffffff168152602001600073ffffffffffffffffffffffffffffffffffffffff1681525090565b610cdd806200165683390190565b828054600181600116156101000203166002900490600052602060002090601f016020900481019282601f1062000d2457805160ff191683800117855562000d55565b8280016001018555821562000d55579182015b8281111562000d5457825182559160200191906001019062000d37565b5b50905062000d64919062000d68565b5090565b62000d8d91905b8082111562000d8957600081600090555060010162000d6f565b5090565b90565b60008135905062000da1816200163b565b92915050565b600082601f83011262000db957600080fd5b813562000dd062000dca82620014f6565b620014c8565b9150818183526020840193506020810190508385602084028201111562000df657600080fd5b60005b8381101562000e2a578162000e0f888262000d90565b84526020840193506020830192505060018101905062000df9565b5050505092915050565b600082601f83011262000e4657600080fd5b813562000e5d62000e57826200151f565b620014c8565b9150818183526020840193506020810190508360005b8381101562000ea7578135860162000e8c888262000eb1565b84526020840193506020830192505060018101905062000e73565b5050505092915050565b600082601f83011262000ec357600080fd5b813562000eda62000ed48262001548565b620014c8565b9150808252602083016020830185838301111562000ef757600080fd5b62000f04838284620015e5565b50505092915050565b60006020828403121562000f2057600080fd5b600062000f308482850162000d90565b91505092915050565b6000806040838503121562000f4d57600080fd5b600062000f5d8582860162000d90565b925050602062000f708582860162000d90565b9150509250929050565b6000806040838503121562000f8e57600080fd5b600083013567ffffffffffffffff81111562000fa957600080fd5b62000fb78582860162000da7565b925050602083013567ffffffffffffffff81111562000fd557600080fd5b62000fe38582860162000e34565b9150509250929050565b600080604083850312156200100157600080fd5b600083013567ffffffffffffffff8111156200101c57600080fd5b6200102a8582860162000e34565b925050602083013567ffffffffffffffff8111156200104857600080fd5b620010568582860162000da7565b9150509250929050565b6000602082840312156200107357600080fd5b600082013567ffffffffffffffff8111156200108e57600080fd5b6200109c8482850162000eb1565b91505092915050565b620010b081620015b1565b82525050565b6000620010c3826200158a565b620010cf818562001595565b9350620010e1818560208601620015f4565b620010ec816200162a565b840191505092915050565b600062001104826200158a565b620011108185620015a6565b935062001122818560208601620015f4565b80840191505092915050565b6000815460018116600081146200114e57600181146200117657620011c0565b607f6002830416620011618187620015a6565b955060ff1983168652808601935050620011c0565b60028204620011868187620015a6565b9550620011938562001575565b60005b82811015620011b75781548189015260018201915060208101905062001196565b82880195505050505b505092915050565b6000620011d760378362001595565b91507f636861696e6c696e6b2061676772656761746f72206d7573742065786973742060008301527f746f20637265617465206f7074696f6e7320636861696e0000000000000000006020830152604082019050919050565b60006200123f600a8362001595565b91507f6f6e6c79206f776e6572000000000000000000000000000000000000000000006000830152602082019050919050565b60006200128160288362001595565b91507f63616e6e6f74206465706c6f79206f7261636c65207468617420616c7265616460008301527f79206578697374730000000000000000000000000000000000000000000000006020830152604082019050919050565b6000620012e960358362001595565b91507f756e6465726c79696e67206173736574206d757374206e6f742062652074686560008301527f2073616d6520617320737472696b6520617373657400000000000000000000006020830152604082019050919050565b600062001351600183620015a6565b91507f2f000000000000000000000000000000000000000000000000000000000000006000830152600182019050919050565b6000620013928284620010f7565b915081905092915050565b6000620013ab82856200112e565b9150620013b88262001342565b9150620013c682846200112e565b91508190509392505050565b6000602082019050620013e96000830184620010a5565b92915050565b6000604082019050620014066000830185620010a5565b620014156020830184620010a5565b9392505050565b60006020820190508181036000830152620014388184620010b6565b905092915050565b600060208201905081810360008301526200145b81620011c8565b9050919050565b600060208201905081810360008301526200147d8162001230565b9050919050565b600060208201905081810360008301526200149f8162001272565b9050919050565b60006020820190508181036000830152620014c181620012da565b9050919050565b6000604051905081810181811067ffffffffffffffff82111715620014ec57600080fd5b8060405250919050565b600067ffffffffffffffff8211156200150e57600080fd5b602082029050602081019050919050565b600067ffffffffffffffff8211156200153757600080fd5b602082029050602081019050919050565b600067ffffffffffffffff8211156200156057600080fd5b601f19601f8301169050602081019050919050565b60008190508160005260206000209050919050565b600081519050919050565b600082825260208201905092915050565b600081905092915050565b6000620015be82620015c5565b9050919050565b600073ffffffffffffffffffffffffffffffffffffffff82169050919050565b82818337600083830152505050565b60005b8381101562001614578082015181840152602081019050620015f7565b8381111562001624576000848401525b50505050565b6000601f19601f8301169050919050565b6200164681620015b1565b81146200165257600080fd5b5056fe608060405234801561001057600080fd5b50604051610cdd380380610cdd8339818101604052602081101561003357600080fd5b8101908080519060200190929190505050806000806101000a81548173ffffffffffffffffffffffffffffffffffffffff021916908373ffffffffffffffffffffffffffffffffffffffff1602179055508073ffffffffffffffffffffffffffffffffffffffff1663245a7bfc6040518163ffffffff1660e01b815260040160206040518083038186803b1580156100ca57600080fd5b505afa1580156100de573d6000803e3d6000fd5b505050506040513d60208110156100f457600080fd5b8101908080519060200190929190505050600160006101000a81548173ffffffffffffffffffffffffffffffffffffffff021916908373ffffffffffffffffffffffffffffffffffffffff160217905550600160009054906101000a900473ffffffffffffffffffffffffffffffffffffffff16600260006101000a81548173ffffffffffffffffffffffffffffffffffffffff021916908373ffffffffffffffffffffffffffffffffffffffff16021790555050610b25806101b86000396000f3fe608060405234801561001057600080fd5b50600436106100625760003560e01c80634bdba10c146100675780639a6fc8f5146100b1578063ba102a251461014b578063c36af460146101b8578063da0ecab314610222578063e2fb1b0f14610264575b600080fd5b61006f6102a6565b604051808273ffffffffffffffffffffffffffffffffffffffff1673ffffffffffffffffffffffffffffffffffffffff16815260200191505060405180910390f35b6100e9600480360360208110156100c757600080fd5b81019080803569ffffffffffffffffffff1690602001909291905050506102cc565b604051808669ffffffffffffffffffff1669ffffffffffffffffffff1681526020018581526020018481526020018381526020018269ffffffffffffffffffff1669ffffffffffffffffffff1681526020019550505050505060405180910390f35b6101836004803603602081101561016157600080fd5b81019080803569ffffffffffffffffffff169060200190929190505050610455565b604051808381526020018269ffffffffffffffffffff1669ffffffffffffffffffff1681526020019250505060405180910390f35b6101c061060f565b604051808669ffffffffffffffffffff1669ffffffffffffffffffff1681526020018581526020018481526020018381526020018269ffffffffffffffffffff1669ffffffffffffffffffff1681526020019550505050505060405180910390f35b61024e6004803603602081101561023857600080fd5b81019080803590602001909291905050506106d9565b6040518082815260200191505060405180910390f35b6102906004803603602081101561027a57600080fd5b81019080803590602001909291905050506108a6565b6040518082815260200191505060405180910390f35b600160009054906101000a900473ffffffffffffffffffffffffffffffffffffffff1681565b6000806000806000600160009054906101000a900473ffffffffffffffffffffffffffffffffffffffff1673ffffffffffffffffffffffffffffffffffffffff16639a6fc8f5876040518263ffffffff1660e01b8152600401808269ffffffffffffffffffff1669ffffffffffffffffffff16815260200191505060a06040518083038186803b15801561035f57600080fd5b505afa158015610373573d6000803e3d6000fd5b505050506040513d60a081101561038957600080fd5b81019080805190602001909291908051906020019092919080519060200190929190805190602001909291908051906020019092919050505080955081965082975083985084995050505050506000821161044c576040517f08c379a000000000000000000000000000000000000000000000000000000000815260040180806020018281038252600d8152602001807f696e76616c696420726f756e640000000000000000000000000000000000000081525060200191505060405180910390fd5b91939590929450565b6000806000600260009054906101000a900473ffffffffffffffffffffffffffffffffffffffff1673ffffffffffffffffffffffffffffffffffffffff1663b633620c856040518263ffffffff1660e01b8152600401808269ffffffffffffffffffff16815260200191505060206040518083038186803b1580156104d957600080fd5b505afa1580156104ed573d6000803e3d6000fd5b505050506040513d602081101561050357600080fd5b810190808051906020019092919050505090505b600081148015610534575060008469ffffffffffffffffffff1614155b1561060357838060019003945050600260009054906101000a900473ffffffffffffffffffffffffffffffffffffffff1673ffffffffffffffffffffffffffffffffffffffff1663b633620c856040518263ffffffff1660e01b8152600401808269ffffffffffffffffffff16815260200191505060206040518083038186803b1580156105c157600080fd5b505afa1580156105d5573d6000803e3d6000fd5b505050506040513d60208110156105eb57600080fd5b81019080805190602001909291905050509050610517565b80849250925050915091565b60008060008060006106c8600160009054906101000a900473ffffffffffffffffffffffffffffffffffffffff1673ffffffffffffffffffffffffffffffffffffffff1663668a0f026040518163ffffffff1660e01b815260040160206040518083038186803b15801561068257600080fd5b505afa158015610696573d6000803e3d6000fd5b505050506040513d60208110156106ac57600080fd5b810190808051906020019092919050505063ffffffff166102cc565b945094509450945094509091929394565b600080600260009054906101000a900473ffffffffffffffffffffffffffffffffffffffff1673ffffffffffffffffffffffffffffffffffffffff1663668a0f026040518163ffffffff1660e01b815260040160206040518083038186803b15801561074457600080fd5b505afa158015610758573d6000803e3d6000fd5b505050506040513d602081101561076e57600080fd5b8101908080519060200190929190505050905060008061078d83610455565b915091508185106107b7576107ad8169ffffffffffffffffffff16610965565b93505050506108a1565b809250600080600060018669ffffffffffffffffffff16901c90505b6107dc81610455565b80955081965050508785111561080957839550600184840169ffffffffffffffffffff16901c9150610851565b8785101561082e57809250600181870169ffffffffffffffffffff16901c9150610850565b6108438469ffffffffffffffffffff16610965565b96505050505050506108a1565b5b8190508269ffffffffffffffffffff168269ffffffffffffffffffff1614156107d35761087d83610455565b9050809350506108988369ffffffffffffffffffff16610965565b96505050505050505b919050565b6000600260009054906101000a900473ffffffffffffffffffffffffffffffffffffffff1673ffffffffffffffffffffffffffffffffffffffff1663b5ab58dc6108ef846106d9565b6040518263ffffffff1660e01b81526004018082815260200191505060206040518083038186803b15801561092357600080fd5b505afa158015610937573d6000803e3d6000fd5b505050506040513d602081101561094d57600080fd5b81019080805190602001909291905050509050919050565b600080600260009054906101000a900473ffffffffffffffffffffffffffffffffffffffff1673ffffffffffffffffffffffffffffffffffffffff1663b633620c846040518263ffffffff1660e01b81526004018082815260200191505060206040518083038186803b1580156109db57600080fd5b505afa1580156109ef573d6000803e3d6000fd5b505050506040513d6020811015610a0557600080fd5b8101908080519060200190929190505050905082806001019350505b600260009054906101000a900473ffffffffffffffffffffffffffffffffffffffff1673ffffffffffffffffffffffffffffffffffffffff1663b633620c846040518263ffffffff1660e01b81526004018082815260200191505060206040518083038186803b158015610a9457600080fd5b505afa158015610aa8573d6000803e3d6000fd5b505050506040513d6020811015610abe57600080fd5b8101908080519060200190929190505050811415610ae3578280600101935050610a21565b6001830391505091905056fea2646970667358221220f01267b4188878b5191dd3ddc1bdbbeb5d893132497c19136a69627dde3f962564736f6c63430006060033a264697066735822122026467920dbbaa6b41d3fad4dbc5f9ae27eb1723ac8aa70fd0001c21137a31fdf64736f6c63430006060033",
  "immutableReferences": {},
  "source": "pragma solidity >=0.6.0;\npragma experimental ABIEncoderV2;\nimport \"./Ownable.sol\";\nimport \"./Oracle.sol\";\n\n\ncontract orcHelper is Ownable {\n\n\tstruct Info {\n\t\taddress aggregatorAddress;\n\t\taddress oracleAddress;\n\t}\n\n\tmapping(address => string) public TickerSymbols;\n\n\tmapping(string => Info) public PairInfo;\n\n\tfunction oracleAddresses(address _strikeAssetAddress, address _underlyingAssetAddress) public returns (address) {\n\t\treturn PairInfo[string(abi.encodePacked(TickerSymbols[_strikeAssetAddress], '/', TickerSymbols[_underlyingAssetAddress]))].oracleAddress;\n\t}\n\n\tfunction deploy(address _strikeAssetAddress, address _underlyingAssetAddress) public {\n\t\trequire(_underlyingAssetAddress != _strikeAssetAddress, \"underlying asset must not be the same as strike asset\");\n\t\tInfo memory info = PairInfo[string(abi.encodePacked(TickerSymbols[_strikeAssetAddress], '/', TickerSymbols[_underlyingAssetAddress]))];\n\t\trequire(info.aggregatorAddress != address(0), \"chainlink aggregator must exist to create options chain\");\n\t\trequire(info.oracleAddress == address(0), \"cannot deploy oracle that already exists\");\n\t\tinfo.oracleAddress = address(new Oracle(info.aggregatorAddress));\n\t}\n\n\tfunction addTickers(address[] memory _assetAddresses, string[] memory _tickerSymbols) public onlyOwner {\n\t\tuint length = _assetAddresses.length;\n\t\trequire(length == _tickerSymbols.length);\n\t\tfor (uint i = 0; i < length; i++) {\n\t\t\trequire(bytes(TickerSymbols[_assetAddresses[i]]).length == 0);\n\t\t\tTickerSymbols[_assetAddresses[i]] = _tickerSymbols[i];\n\t\t}\n\t}\n\n\tfunction addAggregators(string[] memory _pairTicker, address[] memory _aggregators) public onlyOwner {\n\t\tuint length = _pairTicker.length;\n\t\trequire(length == _aggregators.length);\n\t\tfor (uint i = 0; i < length; i++) {\n\t\t\trequire(bytes(_pairTicker[i])[0] != \"/\");\n\t\t\trequire(bytes(_pairTicker[i])[_pairTicker.length-1] != \"/\");\n\t\t\tPairInfo[_pairTicker[i]].aggregatorAddress = _aggregators[i];\n\t\t}\n\t}\n\n}",
  "sourcePath": "/home/max/Desktop/truffleworkspace/oracle-chainlink/contracts/orcHelper.sol",
  "compiler": {
    "name": "solc",
    "version": "0.6.6+commit.6c089d02.Emscripten.clang"
  },
  "schemaVersion": "3.1.0",
  "updatedAt": "2020-11-22T08:20:57.942Z",
  "networkType": "ethereum",
  "devdoc": {
    "methods": {}
  },
  "userdoc": {
    "methods": {}
  }
}